{
  "_format": "hh-sol-artifact-1",
  "contractName": "IdentityRegistry",
  "sourceName": "IdentityRegistry.sol",
  "abi": [
    {
      "inputs": [
        {
          "internalType": "address",
          "name": "_reputationRegistry",
          "type": "address"
        },
        {
          "internalType": "address",
          "name": "_validationRegistry",
          "type": "address"
        }
      ],
      "stateMutability": "nonpayable",
      "type": "constructor"
    },
    {
      "inputs": [],
      "name": "AddressAlreadyRegistered",
      "type": "error"
    },
    {
      "inputs": [],
      "name": "AgentNotFound",
      "type": "error"
    },
    {
      "inputs": [],
      "name": "DomainAlreadyRegistered",
      "type": "error"
    },
    {
      "inputs": [],
      "name": "InsufficientFee",
      "type": "error"
    },
    {
      "inputs": [],
      "name": "InvalidAddress",
      "type": "error"
    },
    {
      "inputs": [],
      "name": "InvalidDomain",
      "type": "error"
    },
    {
      "inputs": [],
      "name": "UnauthorizedUpdate",
      "type": "error"
    },
    {
      "anonymous": false,
      "inputs": [
        {
          "indexed": true,
          "internalType": "uint256",
          "name": "agentId",
          "type": "uint256"
        },
        {
          "indexed": false,
          "internalType": "string",
          "name": "agentDomain",
          "type": "string"
        },
        {
          "indexed": true,
          "internalType": "address",
          "name": "agentAddress",
          "type": "address"
        }
      ],
      "name": "AgentRegistered",
      "type": "event"
    },
    {
      "anonymous": false,
      "inputs": [
        {
          "indexed": true,
          "internalType": "uint256",
          "name": "agentId",
          "type": "uint256"
        },
        {
          "indexed": false,
          "internalType": "string",
          "name": "newAgentDomain",
          "type": "string"
        },
        {
          "indexed": true,
          "internalType": "address",
          "name": "newAgentAddress",
          "type": "address"
        }
      ],
      "name": "AgentUpdated",
      "type": "event"
    },
    {
      "inputs": [],
      "name": "REGISTRATION_FEE",
      "outputs": [
        {
          "internalType": "uint256",
          "name": "",
          "type": "uint256"
        }
      ],
      "stateMutability": "view",
      "type": "function"
    },
    {
      "inputs": [
        {
          "internalType": "uint256",
          "name": "agentId",
          "type": "uint256"
        }
      ],
      "name": "agentExists",
      "outputs": [
        {
          "internalType": "bool",
          "name": "exists",
          "type": "bool"
        }
      ],
      "stateMutability": "view",
      "type": "function"
    },
    {
      "inputs": [
        {
          "internalType": "uint256",
          "name": "agentId",
          "type": "uint256"
        }
      ],
      "name": "getAgent",
      "outputs": [
        {
          "components": [
            {
              "internalType": "uint256",
              "name": "agentId",
              "type": "uint256"
            },
            {
              "internalType": "string",
              "name": "agentDomain",
              "type": "string"
            },
            {
              "internalType": "address",
              "name": "agentAddress",
              "type": "address"
            },
            {
              "internalType": "string",
              "name": "metadataUri",
              "type": "string"
            }
          ],
          "internalType": "struct IIdentityRegistry.AgentInfo",
          "name": "agentInfo",
          "type": "tuple"
        }
      ],
      "stateMutability": "view",
      "type": "function"
    },
    {
      "inputs": [],
      "name": "getAgentCount",
      "outputs": [
        {
          "internalType": "uint256",
          "name": "count",
          "type": "uint256"
        }
      ],
      "stateMutability": "view",
      "type": "function"
    },
    {
      "inputs": [
        {
          "internalType": "uint256",
          "name": "agentId",
          "type": "uint256"
        }
      ],
      "name": "getAgentFullInfo",
      "outputs": [
        {
          "components": [
            {
              "internalType": "uint256",
              "name": "agentId",
              "type": "uint256"
            },
            {
              "internalType": "string",
              "name": "agentDomain",
              "type": "string"
            },
            {
              "internalType": "address",
              "name": "agentAddress",
              "type": "address"
            },
            {
              "internalType": "string",
              "name": "metadataUri",
              "type": "string"
            }
          ],
          "internalType": "struct IIdentityRegistry.AgentInfo",
          "name": "agentInfo",
          "type": "tuple"
        },
        {
          "internalType": "int256",
          "name": "reputationScore",
          "type": "int256"
        },
        {
          "internalType": "uint256",
          "name": "upVotes",
          "type": "uint256"
        },
        {
          "internalType": "uint256",
          "name": "downVotes",
          "type": "uint256"
        },
        {
          "internalType": "uint256",
          "name": "validationCount",
          "type": "uint256"
        },
        {
          "internalType": "uint8",
          "name": "validationScore",
          "type": "uint8"
        }
      ],
      "stateMutability": "view",
      "type": "function"
    },
    {
      "inputs": [
        {
          "internalType": "uint256",
          "name": "agentId",
          "type": "uint256"
        }
      ],
      "name": "getAgentReputation",
      "outputs": [
        {
          "internalType": "int256",
          "name": "score",
          "type": "int256"
        }
      ],
      "stateMutability": "view",
      "type": "function"
    },
    {
      "inputs": [
        {
          "internalType": "uint256",
          "name": "agentId",
          "type": "uint256"
        }
      ],
      "name": "getAgentValidation",
      "outputs": [
        {
          "internalType": "uint256",
          "name": "validationCount",
          "type": "uint256"
        },
        {
          "internalType": "uint8",
          "name": "averageScore",
          "type": "uint8"
        }
      ],
      "stateMutability": "view",
      "type": "function"
    },
    {
      "inputs": [
        {
          "internalType": "uint256",
          "name": "agentId",
          "type": "uint256"
        }
      ],
      "name": "getAgentVoteCounts",
      "outputs": [
        {
          "internalType": "uint256",
          "name": "upVotes",
          "type": "uint256"
        },
        {
          "internalType": "uint256",
          "name": "downVotes",
          "type": "uint256"
        }
      ],
      "stateMutability": "view",
      "type": "function"
    },
    {
      "inputs": [],
      "name": "getAllDomains",
      "outputs": [
        {
          "internalType": "string[]",
          "name": "domains",
          "type": "string[]"
        }
      ],
      "stateMutability": "view",
      "type": "function"
    },
    {
      "inputs": [
        {
          "internalType": "uint256",
          "name": "offset",
          "type": "uint256"
        },
        {
          "internalType": "uint256",
          "name": "limit",
          "type": "uint256"
        }
      ],
      "name": "getDomainsPaginated",
      "outputs": [
        {
          "internalType": "string[]",
          "name": "domains",
          "type": "string[]"
        },
        {
          "internalType": "uint256",
          "name": "total",
          "type": "uint256"
        }
      ],
      "stateMutability": "view",
      "type": "function"
    },
    {
      "inputs": [
        {
          "internalType": "string",
          "name": "agentDomain",
          "type": "string"
        },
        {
          "internalType": "address",
          "name": "agentAddress",
          "type": "address"
        },
        {
          "internalType": "string",
          "name": "metadataUri",
          "type": "string"
        }
      ],
      "name": "newAgent",
      "outputs": [
        {
          "internalType": "uint256",
          "name": "agentId",
          "type": "uint256"
        }
      ],
      "stateMutability": "payable",
      "type": "function"
    },
    {
      "inputs": [],
      "name": "reputationRegistry",
      "outputs": [
        {
          "internalType": "contract IReputationRegistry",
          "name": "",
          "type": "address"
        }
      ],
      "stateMutability": "view",
      "type": "function"
    },
    {
      "inputs": [
        {
          "internalType": "address",
          "name": "agentAddress",
          "type": "address"
        }
      ],
      "name": "resolveByAddress",
      "outputs": [
        {
          "components": [
            {
              "internalType": "uint256",
              "name": "agentId",
              "type": "uint256"
            },
            {
              "internalType": "string",
              "name": "agentDomain",
              "type": "string"
            },
            {
              "internalType": "address",
              "name": "agentAddress",
              "type": "address"
            },
            {
              "internalType": "string",
              "name": "metadataUri",
              "type": "string"
            }
          ],
          "internalType": "struct IIdentityRegistry.AgentInfo",
          "name": "agentInfo",
          "type": "tuple"
        }
      ],
      "stateMutability": "view",
      "type": "function"
    },
    {
      "inputs": [
        {
          "internalType": "string",
          "name": "agentDomain",
          "type": "string"
        }
      ],
      "name": "resolveByDomain",
      "outputs": [
        {
          "components": [
            {
              "internalType": "uint256",
              "name": "agentId",
              "type": "uint256"
            },
            {
              "internalType": "string",
              "name": "agentDomain",
              "type": "string"
            },
            {
              "internalType": "address",
              "name": "agentAddress",
              "type": "address"
            },
            {
              "internalType": "string",
              "name": "metadataUri",
              "type": "string"
            }
          ],
          "internalType": "struct IIdentityRegistry.AgentInfo",
          "name": "agentInfo",
          "type": "tuple"
        }
      ],
      "stateMutability": "view",
      "type": "function"
    },
    {
      "inputs": [
        {
          "internalType": "address",
          "name": "_reputationRegistry",
          "type": "address"
        }
      ],
      "name": "setReputationRegistry",
      "outputs": [],
      "stateMutability": "nonpayable",
      "type": "function"
    },
    {
      "inputs": [
        {
          "internalType": "address",
          "name": "_validationRegistry",
          "type": "address"
        }
      ],
      "name": "setValidationRegistry",
      "outputs": [],
      "stateMutability": "nonpayable",
      "type": "function"
    },
    {
      "inputs": [
        {
          "internalType": "uint256",
          "name": "agentId",
          "type": "uint256"
        },
        {
          "internalType": "string",
          "name": "newAgentDomain",
          "type": "string"
        },
        {
          "internalType": "address",
          "name": "newAgentAddress",
          "type": "address"
        }
      ],
      "name": "updateAgent",
      "outputs": [
        {
          "internalType": "bool",
          "name": "success",
          "type": "bool"
        }
      ],
      "stateMutability": "nonpayable",
      "type": "function"
    },
    {
      "inputs": [
        {
          "internalType": "uint256",
          "name": "agentId",
          "type": "uint256"
        },
        {
          "internalType": "string",
          "name": "newMetadataUri",
          "type": "string"
        }
      ],
      "name": "updateMetadata",
      "outputs": [
        {
          "internalType": "bool",
          "name": "success",
          "type": "bool"
        }
      ],
      "stateMutability": "nonpayable",
      "type": "function"
    },
    {
      "inputs": [],
      "name": "validationRegistry",
      "outputs": [
        {
          "internalType": "contract IValidationRegistry",
          "name": "",
          "type": "address"
        }
      ],
      "stateMutability": "view",
      "type": "function"
    }
  ],
  "bytecode": "60806040523480156200001157600080fd5b5060405162001f1738038062001f178339810160408190526200003491620000b6565b60016000556001600160a01b038216156200006557600580546001600160a01b0319166001600160a01b0384161790555b6001600160a01b038116156200009157600680546001600160a01b0319166001600160a01b0383161790555b5050620000ee565b80516001600160a01b0381168114620000b157600080fd5b919050565b60008060408385031215620000ca57600080fd5b620000d58362000099565b9150620000e56020840162000099565b90509250929050565b611e1980620000fe6000396000f3fe6080604052600436106101145760003560e01c806357518309116100a0578063c8db44e311610064578063c8db44e314610391578063cb43091f146103b1578063d9f0f470146103d1578063de99f157146103e4578063e777ce721461041357600080fd5b806357518309146102da5780635a018e6a1461031157806364b4f7511461033357806378ddad121461035c57806391cab63e1461037c57600080fd5b80633f0ce714116100e75780633f0ce714146101d15780633f252e00146102105780634c6b993a1461024d5780634ee4eca81461028557806353c8388e146102ba57600080fd5b80630c638107146101195780631154c3fe1461014f5780632de5aaf7146101815780633bfbbad7146101a1575b600080fd5b34801561012557600080fd5b50610139610134366004611621565b610441565b60405161014691906116dc565b60405180910390f35b34801561015b57600080fd5b5061016f61016a3660046116ef565b6105e7565b60405161014696959493929190611708565b34801561018d57600080fd5b5061013961019c3660046116ef565b6108fe565b3480156101ad57600080fd5b506101c16101bc366004611789565b610a8e565b6040519015158152602001610146565b3480156101dd57600080fd5b5061020e6101ec366004611621565b600580546001600160a01b0319166001600160a01b0392909216919091179055565b005b34801561021c57600080fd5b5061020e61022b366004611621565b600680546001600160a01b0319166001600160a01b0392909216919091179055565b34801561025957600080fd5b5060065461026d906001600160a01b031681565b6040516001600160a01b039091168152602001610146565b34801561029157600080fd5b506102a56102a03660046116ef565b610c80565b60408051928352602083019190915201610146565b3480156102c657600080fd5b506101c16102d53660046117e7565b610d15565b3480156102e657600080fd5b506102fa6102f53660046116ef565b610dda565b6040805192835260ff909116602083015201610146565b34801561031d57600080fd5b50610326610e66565b6040516101469190611888565b34801561033f57600080fd5b5061034e6611c37937e0800081565b604051908152602001610146565b34801561036857600080fd5b5061013961037736600461189b565b610f3f565b34801561038857600080fd5b5061034e6110f2565b34801561039d57600080fd5b5060055461026d906001600160a01b031681565b3480156103bd57600080fd5b5061034e6103cc3660046116ef565b611108565b61034e6103df3660046118dd565b611196565b3480156103f057600080fd5b506101c16103ff3660046116ef565b600090815260016020526040902054151590565b34801561041f57600080fd5b5061043361042e366004611961565b61142e565b604051610146929190611983565b6104496115d9565b6001600160a01b038216600090815260036020526040812054908190036104835760405163e93ba22360e01b815260040160405180910390fd5b600081815260016020818152604092839020835160808101909452805484529182018054918401916104b4906119a5565b80601f01602080910402602001604051908101604052809291908181526020018280546104e0906119a5565b801561052d5780601f106105025761010080835404028352916020019161052d565b820191906000526020600020905b81548152906001019060200180831161051057829003601f168201915b505050918352505060028201546001600160a01b0316602082015260038201805460409092019161055d906119a5565b80601f0160208091040260200160405190810160405280929190818152602001828054610589906119a5565b80156105d65780601f106105ab576101008083540402835291602001916105d6565b820191906000526020600020905b8154815290600101906020018083116105b957829003601f168201915b505050505081525050915050919050565b6105ef6115d9565b6000806000806000600160008881526020019081526020016000206040518060800160405290816000820154815260200160018201805461062f906119a5565b80601f016020809104026020016040519081016040528092919081815260200182805461065b906119a5565b80156106a85780601f1061067d576101008083540402835291602001916106a8565b820191906000526020600020905b81548152906001019060200180831161068b57829003601f168201915b505050918352505060028201546001600160a01b031660208201526003820180546040909201916106d8906119a5565b80601f0160208091040260200160405190810160405280929190818152602001828054610704906119a5565b80156107515780601f1061072657610100808354040283529160200191610751565b820191906000526020600020905b81548152906001019060200180831161073457829003601f168201915b505050505081525050955085600001516000036107815760405163e93ba22360e01b815260040160405180910390fd5b6005546001600160a01b031615610872576005546040516389370d8b60e01b8152600481018990526001600160a01b03909116906389370d8b90602401602060405180830381865afa1580156107db573d6000803e3d6000fd5b505050506040513d601f19601f820116820180604052508101906107ff91906119df565b60055460405163228907d360e21b8152600481018a90529196506001600160a01b031690638a241f4c906024016040805180830381865afa158015610848573d6000803e3d6000fd5b505050506040513d601f19601f8201168201806040525081019061086c91906119f8565b90945092505b6006546001600160a01b0316156108f5576006546040516320e4ab9760e21b8152600481018990526001600160a01b0390911690638392ae5c906024016040805180830381865afa1580156108cb573d6000803e3d6000fd5b505050506040513d601f19601f820116820180604052508101906108ef9190611a1c565b90925090505b91939550919395565b6109066115d9565b60008281526001602081815260409283902083516080810190945280548452918201805491840191610937906119a5565b80601f0160208091040260200160405190810160405280929190818152602001828054610963906119a5565b80156109b05780601f10610985576101008083540402835291602001916109b0565b820191906000526020600020905b81548152906001019060200180831161099357829003601f168201915b505050918352505060028201546001600160a01b031660208201526003820180546040909201916109e0906119a5565b80601f0160208091040260200160405190810160405280929190818152602001828054610a0c906119a5565b8015610a595780601f10610a2e57610100808354040283529160200191610a59565b820191906000526020600020905b815481529060010190602001808311610a3c57829003601f168201915b50505050508152505090508060000151600003610a895760405163e93ba22360e01b815260040160405180910390fd5b919050565b600084815260016020526040812080548203610abd5760405163e93ba22360e01b815260040160405180910390fd5b60028101546001600160a01b03163314610aea57604051634f1f214760e01b815260040160405180910390fd5b83158015906001600160a01b038516151590610b415760028787604051610b12929190611a52565b908152602001604051809103902054600014610b4157604051637b857a6b60e01b815260040160405180910390fd5b8015610b7e576001600160a01b03851660009081526003602052604090205415610b7e576040516316a163b960e11b815260040160405180910390fd5b8115610bde57600283600101604051610b979190611a62565b9081526040519081900360200190206000905560018301610bb9878983611b3d565b508760028888604051610bcd929190611a52565b908152604051908190036020019020555b8015610c24576002830180546001600160a01b0390811660009081526003602052604080822082905583546001600160a01b031916928916928317909355908152208890555b60028301546040516001600160a01b039091169089907f1b37db56c92268433e33fda6783791cb9e5f8ffababd3952ab40716443f1bf8990610c6a906001880190611bfe565b60405180910390a3506001979650505050505050565b60055460009081906001600160a01b0316610ca057506000928392509050565b60055460405163228907d360e21b8152600481018590526001600160a01b0390911690638a241f4c906024016040805180830381865afa158015610ce8573d6000803e3d6000fd5b505050506040513d601f19601f82011682018060405250810190610d0c91906119f8565b91509150915091565b600083815260016020526040812080548203610d445760405163e93ba22360e01b815260040160405180910390fd5b60028101546001600160a01b03163314610d7157604051634f1f214760e01b815260040160405180910390fd5b60038101610d80848683611b3d565b5060028101546040516001600160a01b039091169086907f1b37db56c92268433e33fda6783791cb9e5f8ffababd3952ab40716443f1bf8990610dc7906001860190611bfe565b60405180910390a3506001949350505050565b60065460009081906001600160a01b0316610dfa57506000928392509050565b6006546040516320e4ab9760e21b8152600481018590526001600160a01b0390911690638392ae5c906024016040805180830381865afa158015610e42573d6000803e3d6000fd5b505050506040513d601f19601f82011682018060405250810190610d0c9190611a1c565b60606004805480602002602001604051908101604052809291908181526020016000905b82821015610f36578382906000526020600020018054610ea9906119a5565b80601f0160208091040260200160405190810160405280929190818152602001828054610ed5906119a5565b8015610f225780601f10610ef757610100808354040283529160200191610f22565b820191906000526020600020905b815481529060010190602001808311610f0557829003601f168201915b505050505081526020019060010190610e8a565b50505050905090565b610f476115d9565b600060028484604051610f5b929190611a52565b908152602001604051809103902054905080600003610f8d5760405163e93ba22360e01b815260040160405180910390fd5b60008181526001602081815260409283902083516080810190945280548452918201805491840191610fbe906119a5565b80601f0160208091040260200160405190810160405280929190818152602001828054610fea906119a5565b80156110375780601f1061100c57610100808354040283529160200191611037565b820191906000526020600020905b81548152906001019060200180831161101a57829003601f168201915b505050918352505060028201546001600160a01b03166020820152600382018054604090920191611067906119a5565b80601f0160208091040260200160405190810160405280929190818152602001828054611093906119a5565b80156110e05780601f106110b5576101008083540402835291602001916110e0565b820191906000526020600020905b8154815290600101906020018083116110c357829003601f168201915b50505050508152505091505092915050565b600060016000546111039190611c9f565b905090565b6005546000906001600160a01b031661112357506000919050565b6005546040516389370d8b60e01b8152600481018490526001600160a01b03909116906389370d8b90602401602060405180830381865afa15801561116c573d6000803e3d6000fd5b505050506040513d601f19601f8201168201806040525081019061119091906119df565b92915050565b60008481036111b8576040516375893cc160e11b815260040160405180910390fd5b6001600160a01b0384166111df5760405163e6c4247b60e01b815260040160405180910390fd5b600286866040516111f1929190611a52565b90815260200160405180910390205460001461122057604051637b857a6b60e01b815260040160405180910390fd5b6001600160a01b03841660009081526003602052604090205415611257576040516316a163b960e11b815260040160405180910390fd5b60008054908061126683611cb2565b919050559050604051806080016040528082815260200187878080601f0160208091040260200160405190810160405280939291908181526020018383808284376000920191909152505050908252506001600160a01b03861660208083019190915260408051601f87018390048302810183018252868152920191908690869081908401838280828437600092018290525093909452505083815260016020818152604090922084518155918401519192508201906113269082611ccb565b5060408201516002820180546001600160a01b0319166001600160a01b03909216919091179055606082015160038201906113619082611ccb565b509050508060028787604051611378929190611a52565b9081526040805160209281900383019020929092556001600160a01b038616600090815260039091529081208290556004805460018101825591527f8a35acfbc15ff81a39ae7d344fd709f28e8600b4aa8c65c6b64bfe7fe36bd19b016113e0868883611b3d565b50836001600160a01b0316817faef1fcdf962a03943b677ae3b92ef1b34c972aeef794ed6e9ba5f599b461883b888860405161141d929190611d8b565b60405180910390a395945050505050565b60045460609080841061146e576040805160008082526020820190925290611466565b60608152602001906001900390816114515790505b5091506115d2565b600061147a8486611dba565b9050818111156114875750805b60006114938683611c9f565b90508067ffffffffffffffff8111156114ae576114ae611ad8565b6040519080825280602002602001820160405280156114e157816020015b60608152602001906001900390816114cc5790505b50935060005b818110156115ce5760046114fb8289611dba565b8154811061150b5761150b611dcd565b906000526020600020018054611520906119a5565b80601f016020809104026020016040519081016040528092919081815260200182805461154c906119a5565b80156115995780601f1061156e57610100808354040283529160200191611599565b820191906000526020600020905b81548152906001019060200180831161157c57829003601f168201915b50505050508582815181106115b0576115b0611dcd565b602002602001018190525080806115c690611cb2565b9150506114e7565b5050505b9250929050565b6040518060800160405280600081526020016060815260200160006001600160a01b03168152602001606081525090565b80356001600160a01b0381168114610a8957600080fd5b60006020828403121561163357600080fd5b61163c8261160a565b9392505050565b6000815180845260005b818110156116695760208185018101518683018201520161164d565b506000602082860101526020601f19601f83011685010191505092915050565b8051825260006020820151608060208501526116a86080850182611643565b905060018060a01b036040840151166040850152606083015184820360608601526116d38282611643565b95945050505050565b60208152600061163c6020830184611689565b60006020828403121561170157600080fd5b5035919050565b60c08152600061171b60c0830189611689565b60208301979097525060408101949094526060840192909252608083015260ff1660a090910152919050565b60008083601f84011261175957600080fd5b50813567ffffffffffffffff81111561177157600080fd5b6020830191508360208285010111156115d257600080fd5b6000806000806060858703121561179f57600080fd5b84359350602085013567ffffffffffffffff8111156117bd57600080fd5b6117c987828801611747565b90945092506117dc90506040860161160a565b905092959194509250565b6000806000604084860312156117fc57600080fd5b83359250602084013567ffffffffffffffff81111561181a57600080fd5b61182686828701611747565b9497909650939450505050565b600081518084526020808501808196508360051b8101915082860160005b8581101561187b578284038952611869848351611643565b98850198935090840190600101611851565b5091979650505050505050565b60208152600061163c6020830184611833565b600080602083850312156118ae57600080fd5b823567ffffffffffffffff8111156118c557600080fd5b6118d185828601611747565b90969095509350505050565b6000806000806000606086880312156118f557600080fd5b853567ffffffffffffffff8082111561190d57600080fd5b61191989838a01611747565b909750955085915061192d6020890161160a565b9450604088013591508082111561194357600080fd5b5061195088828901611747565b969995985093965092949392505050565b6000806040838503121561197457600080fd5b50508035926020909101359150565b6040815260006119966040830185611833565b90508260208301529392505050565b600181811c908216806119b957607f821691505b6020821081036119d957634e487b7160e01b600052602260045260246000fd5b50919050565b6000602082840312156119f157600080fd5b5051919050565b60008060408385031215611a0b57600080fd5b505080516020909101519092909150565b60008060408385031215611a2f57600080fd5b82519150602083015160ff81168114611a4757600080fd5b809150509250929050565b8183823760009101908152919050565b6000808354611a70816119a5565b60018281168015611a885760018114611a9d57611acc565b60ff1984168752821515830287019450611acc565b8760005260208060002060005b85811015611ac35781548a820152908401908201611aaa565b50505082870194505b50929695505050505050565b634e487b7160e01b600052604160045260246000fd5b601f821115611b3857600081815260208120601f850160051c81016020861015611b155750805b601f850160051c820191505b81811015611b3457828155600101611b21565b5050505b505050565b67ffffffffffffffff831115611b5557611b55611ad8565b611b6983611b6383546119a5565b83611aee565b6000601f841160018114611b9d5760008515611b855750838201355b600019600387901b1c1916600186901b178355611bf7565b600083815260209020601f19861690835b82811015611bce5786850135825560209485019460019092019101611bae565b5086821015611beb5760001960f88860031b161c19848701351681555b505060018560011b0183555b5050505050565b6000602080835260008454611c12816119a5565b80848701526040600180841660008114611c335760018114611c4d57611c7b565b60ff1985168984015283151560051b890183019550611c7b565b896000528660002060005b85811015611c735781548b8201860152908301908801611c58565b8a0184019650505b509398975050505050505050565b634e487b7160e01b600052601160045260246000fd5b8181038181111561119057611190611c89565b600060018201611cc457611cc4611c89565b5060010190565b815167ffffffffffffffff811115611ce557611ce5611ad8565b611cf981611cf384546119a5565b84611aee565b602080601f831160018114611d2e5760008415611d165750858301515b600019600386901b1c1916600185901b178555611b34565b600085815260208120601f198616915b82811015611d5d57888601518255948401946001909101908401611d3e565b5085821015611d7b5787850151600019600388901b60f8161c191681555b5050505050600190811b01905550565b60208152816020820152818360408301376000818301604090810191909152601f909201601f19160101919050565b8082018082111561119057611190611c89565b634e487b7160e01b600052603260045260246000fdfea26469706673582212206e39085077852d6731179cd2321cef64df19df366306b0752921081d170282e264736f6c63430008130033",
  "linkReferences": {},
  "deployedLinkReferences": {}
}